{
  "contractName": "Donation",
  "abi": [
    {
      "inputs": [],
      "stateMutability": "nonpayable",
      "type": "constructor"
    },
    {
      "anonymous": false,
      "inputs": [
        {
          "indexed": false,
          "internalType": "uint256",
          "name": "amount",
          "type": "uint256"
        }
      ],
      "name": "AdminFeeChanged",
      "type": "event"
    },
    {
      "anonymous": false,
      "inputs": [
        {
          "indexed": true,
          "internalType": "address",
          "name": "sender",
          "type": "address"
        },
        {
          "indexed": false,
          "internalType": "uint256",
          "name": "amount",
          "type": "uint256"
        },
        {
          "indexed": false,
          "internalType": "uint256",
          "name": "count",
          "type": "uint256"
        }
      ],
      "name": "Received",
      "type": "event"
    },
    {
      "anonymous": false,
      "inputs": [
        {
          "indexed": false,
          "internalType": "bool",
          "name": "refundOk",
          "type": "bool"
        }
      ],
      "name": "RefundStatusChanged",
      "type": "event"
    },
    {
      "anonymous": false,
      "inputs": [
        {
          "indexed": true,
          "internalType": "address",
          "name": "receiver",
          "type": "address"
        },
        {
          "indexed": false,
          "internalType": "uint256",
          "name": "amount",
          "type": "uint256"
        },
        {
          "indexed": false,
          "internalType": "uint256",
          "name": "count",
          "type": "uint256"
        }
      ],
      "name": "Refunded",
      "type": "event"
    },
    {
      "anonymous": false,
      "inputs": [
        {
          "indexed": true,
          "internalType": "address",
          "name": "receiver",
          "type": "address"
        },
        {
          "indexed": false,
          "internalType": "uint256",
          "name": "amount",
          "type": "uint256"
        },
        {
          "indexed": false,
          "internalType": "uint256",
          "name": "count",
          "type": "uint256"
        }
      ],
      "name": "Withdrawn",
      "type": "event"
    },
    {
      "stateMutability": "payable",
      "type": "fallback",
      "payable": true
    },
    {
      "inputs": [],
      "name": "adminFee",
      "outputs": [
        {
          "internalType": "uint256",
          "name": "",
          "type": "uint256"
        }
      ],
      "stateMutability": "view",
      "type": "function",
      "constant": true
    },
    {
      "inputs": [],
      "name": "donationCount",
      "outputs": [
        {
          "internalType": "uint256",
          "name": "",
          "type": "uint256"
        }
      ],
      "stateMutability": "view",
      "type": "function",
      "constant": true
    },
    {
      "inputs": [
        {
          "internalType": "address",
          "name": "",
          "type": "address"
        }
      ],
      "name": "donations",
      "outputs": [
        {
          "internalType": "uint256",
          "name": "",
          "type": "uint256"
        }
      ],
      "stateMutability": "view",
      "type": "function",
      "constant": true
    },
    {
      "inputs": [],
      "name": "emptyCount",
      "outputs": [
        {
          "internalType": "uint256",
          "name": "",
          "type": "uint256"
        }
      ],
      "stateMutability": "view",
      "type": "function",
      "constant": true
    },
    {
      "inputs": [],
      "name": "owner",
      "outputs": [
        {
          "internalType": "address",
          "name": "",
          "type": "address"
        }
      ],
      "stateMutability": "view",
      "type": "function",
      "constant": true
    },
    {
      "inputs": [],
      "name": "refundCount",
      "outputs": [
        {
          "internalType": "uint256",
          "name": "",
          "type": "uint256"
        }
      ],
      "stateMutability": "view",
      "type": "function",
      "constant": true
    },
    {
      "inputs": [],
      "name": "refundOk",
      "outputs": [
        {
          "internalType": "bool",
          "name": "",
          "type": "bool"
        }
      ],
      "stateMutability": "view",
      "type": "function",
      "constant": true
    },
    {
      "stateMutability": "payable",
      "type": "receive",
      "payable": true
    },
    {
      "inputs": [],
      "name": "donateETH",
      "outputs": [],
      "stateMutability": "payable",
      "type": "function",
      "payable": true
    },
    {
      "inputs": [],
      "name": "getBalance",
      "outputs": [
        {
          "internalType": "uint256",
          "name": "result",
          "type": "uint256"
        }
      ],
      "stateMutability": "view",
      "type": "function",
      "constant": true
    },
    {
      "inputs": [],
      "name": "emptyBalance",
      "outputs": [],
      "stateMutability": "nonpayable",
      "type": "function"
    },
    {
      "inputs": [
        {
          "internalType": "bool",
          "name": "newRefundOk",
          "type": "bool"
        }
      ],
      "name": "setRefundOk",
      "outputs": [],
      "stateMutability": "nonpayable",
      "type": "function"
    },
    {
      "inputs": [
        {
          "internalType": "uint256",
          "name": "newAdminFee",
          "type": "uint256"
        }
      ],
      "name": "setAdminFee",
      "outputs": [],
      "stateMutability": "nonpayable",
      "type": "function"
    },
    {
      "inputs": [
        {
          "internalType": "uint256",
          "name": "amount",
          "type": "uint256"
        }
      ],
      "name": "refund",
      "outputs": [],
      "stateMutability": "nonpayable",
      "type": "function"
    }
  ],
  "bytecode": "0x608060405234801561001057600080fd5b50336000806101000a81548173ffffffffffffffffffffffffffffffffffffffff021916908373ffffffffffffffffffffffffffffffffffffffff1602179055506000600560006101000a81548160ff021916908315150217905550610c118061007b6000396000f3fe6080604052600436106100c65760003560e01c80635a4ff6791161007f5780638da5cb5b116100595780638da5cb5b1461025f578063a0be06f9146102a0578063ac824ce9146102cb578063cc6cb19a146102f8576100d5565b80635a4ff679146102035780638b4c40b01461021a5780638beb60b614610224576100d5565b80630bda4dbf146100df5780630e97df1d1461010a57806312065fe0146101475780632058e90614610172578063278ecde11461019d5780632abfab4d146101d8576100d5565b366100d5576100d361035d565b005b6100dd61035d565b005b3480156100eb57600080fd5b506100f46103c9565b6040518082815260200191505060405180910390f35b34801561011657600080fd5b506101456004803603602081101561012d57600080fd5b810190808035151590602001909291905050506103cf565b005b34801561015357600080fd5b5061015c6104e6565b6040518082815260200191505060405180910390f35b34801561017e57600080fd5b506101876104ee565b6040518082815260200191505060405180910390f35b3480156101a957600080fd5b506101d6600480360360208110156101c057600080fd5b81019080803590602001909291905050506104f4565b005b3480156101e457600080fd5b506101ed610727565b6040518082815260200191505060405180910390f35b34801561020f57600080fd5b5061021861072d565b005b6102226108a1565b005b34801561023057600080fd5b5061025d6004803603602081101561024757600080fd5b8101908080359060200190929190505050610943565b005b34801561026b57600080fd5b50610274610a45565b604051808273ffffffffffffffffffffffffffffffffffffffff16815260200191505060405180910390f35b3480156102ac57600080fd5b506102b5610a69565b6040518082815260200191505060405180910390f35b3480156102d757600080fd5b506102e0610a6f565b60405180821515815260200191505060405180910390f35b34801561030457600080fd5b506103476004803603602081101561031b57600080fd5b81019080803573ffffffffffffffffffffffffffffffffffffffff169060200190929190505050610a82565b6040518082815260200191505060405180910390f35b6001600081548092919060010191905055503373ffffffffffffffffffffffffffffffffffffffff167f74cf3d18d0ddca79038197ad0dd2c7fa5005ef61a5d1ed190e8a8a437e2fcf1034600154604051808381526020018281526020019250505060405180910390a2565b60035481565b60008054906101000a900473ffffffffffffffffffffffffffffffffffffffff1673ffffffffffffffffffffffffffffffffffffffff163373ffffffffffffffffffffffffffffffffffffffff1614610490576040517f08c379a00000000000000000000000000000000000000000000000000000000081526004018080602001828103825260208152602001807f63616c6c6572206973206e6f74206f776e6572206f6620636f6e74726163742181525060200191505060405180910390fd5b80600560006101000a81548160ff0219169083151502179055507fa92a6fd913b7b55975011c2ddb03fc28c49454e578c43cf5ec045e52a1afaf878160405180821515815260200191505060405180910390a150565b600047905090565b60045481565b60011515600560009054906101000a900460ff1615151461057d576040517f08c379a000000000000000000000000000000000000000000000000000000000815260040180806020018281038252601f8152602001807f526566756e642069732063757272656e746c79206e6f7420616c6c6f7765640081525060200191505060405180910390fd5b6000600660003373ffffffffffffffffffffffffffffffffffffffff1673ffffffffffffffffffffffffffffffffffffffff16815260200190815260200160002054905060006105cf83600254610a9a565b90508181111561062a576040517f08c379a0000000000000000000000000000000000000000000000000000000008152600401808060200182810382526036815260200180610ba66036913960400191505060405180910390fd5b6106348282610b22565b600660003373ffffffffffffffffffffffffffffffffffffffff1673ffffffffffffffffffffffffffffffffffffffff168152602001908152602001600020819055503373ffffffffffffffffffffffffffffffffffffffff167f2dc8e290002f06fc0085bbca9dfb8b415cf4d1178950c72ff9ee8f4d8878ee6684600360008154600101919050819055604051808381526020018281526020019250505060405180910390a23373ffffffffffffffffffffffffffffffffffffffff166108fc849081150290604051600060405180830381858888f19350505050158015610721573d6000803e3d6000fd5b50505050565b60015481565b60008054906101000a900473ffffffffffffffffffffffffffffffffffffffff1673ffffffffffffffffffffffffffffffffffffffff163373ffffffffffffffffffffffffffffffffffffffff16146107ee576040517f08c379a00000000000000000000000000000000000000000000000000000000081526004018080602001828103825260208152602001807f63616c6c6572206973206e6f74206f776e6572206f6620636f6e74726163742181525060200191505060405180910390fd5b60004790503373ffffffffffffffffffffffffffffffffffffffff167f92ccf450a286a957af52509bc1c9939d1a6a481783e142e41e2499f0bb66ebc682600460008154600101919050819055604051808381526020018281526020019250505060405180910390a23373ffffffffffffffffffffffffffffffffffffffff166108fc829081150290604051600060405180830381858888f1935050505015801561089d573d6000803e3d6000fd5b5050565b60003390506000600660008373ffffffffffffffffffffffffffffffffffffffff1673ffffffffffffffffffffffffffffffffffffffff1681526020019081526020016000205490506108f48134610a9a565b600660008473ffffffffffffffffffffffffffffffffffffffff1673ffffffffffffffffffffffffffffffffffffffff1681526020019081526020016000208190555061093f61035d565b5050565b60008054906101000a900473ffffffffffffffffffffffffffffffffffffffff1673ffffffffffffffffffffffffffffffffffffffff163373ffffffffffffffffffffffffffffffffffffffff1614610a04576040517f08c379a00000000000000000000000000000000000000000000000000000000081526004018080602001828103825260208152602001807f63616c6c6572206973206e6f74206f776e6572206f6620636f6e74726163742181525060200191505060405180910390fd5b806002819055507f11a80b766155f9b8f16a7da44d66269fd694cb1c247f4814244586f68dd53487816040518082815260200191505060405180910390a150565b60008054906101000a900473ffffffffffffffffffffffffffffffffffffffff1681565b60025481565b600560009054906101000a900460ff1681565b60066020528060005260406000206000915090505481565b600080828401905083811015610b18576040517f08c379a00000000000000000000000000000000000000000000000000000000081526004018080602001828103825260108152602001807f61203e206320696e20736166654164640000000000000000000000000000000081525060200191505060405180910390fd5b8091505092915050565b600082821115610b9a576040517f08c379a00000000000000000000000000000000000000000000000000000000081526004018080602001828103825260118152602001807f62203e206120696e20736166655375622100000000000000000000000000000081525060200191505060405180910390fd5b81830390509291505056fe726566756e6420616d6f756e74202b2061646d696e46656520616d6f756e74206578636565647320646f6e6f722062616c616e636521a264697066735822122006905af5e334d9a0c5428e6187b6fed8cd542c9cb7dbe0d5bbba83c6cb51ea0764736f6c63430007050033",
  "immutableReferences": {},
  "source": "// SPDX-License-Identifier: UNLICENSED\r\n// author: chuacw, 24 Jan - 1 Feb 2021, Singapore, Singapore\r\n\r\npragma solidity ^0.7.4;\r\n\r\ncontract Donation {\r\n\r\n    address public owner;\r\n    uint256 public donationCount;\r\n\r\n    uint256 public adminFee;     // admin fee for refund\r\n    uint256 public refundCount;\r\n    uint256 public emptyCount;\r\n\r\n    bool public refundOk;\r\n\r\n    mapping (address => uint256) public donations;\r\n\r\n    // Declare events\r\n    event Received(address indexed sender, uint256 amount, uint256 count);\r\n    event Refunded(address indexed receiver, uint256 amount, uint256 count);\r\n    event Withdrawn(address indexed receiver, uint256 amount, uint256 count);\r\n    \r\n    event AdminFeeChanged(uint256 amount);\r\n    event RefundStatusChanged(bool refundOk);\r\n\r\n    constructor() {\r\n      owner = msg.sender;\r\n      refundOk = false; // Do not refund initially\r\n    }\r\n\r\n    modifier onlyOwner() {\r\n      require (msg.sender == owner, \"caller is not owner of contract!\");\r\n      _;\r\n    }\r\n\r\n    modifier refundAllowed() {\r\n      require (refundOk == true, \"Refund is currently not allowed\");\r\n      _;\r\n    }\r\n\r\n    function update() internal {\r\n      donationCount++;\r\n      emit Received(msg.sender, msg.value, donationCount);      \r\n    }\r\n\r\n    function donateETH() public payable {\r\n      address sender = msg.sender;\r\n      uint256 donorBalance = donations[sender];\r\n      donations[sender] = safeAdd(donorBalance, msg.value);\r\n      update();\r\n    }\r\n\r\n    function getBalance() external view returns (uint256 result) {\r\n      result = address(this).balance;\r\n    }\r\n\r\n    function emptyBalance() external onlyOwner() {\r\n      uint256 value = address(this).balance;\r\n      emit Withdrawn(msg.sender, value, ++emptyCount);\r\n      msg.sender.transfer(value);\r\n    }\r\n\r\n    function setRefundOk(bool newRefundOk) external onlyOwner() {\r\n      refundOk = newRefundOk;\r\n      emit RefundStatusChanged(newRefundOk);\r\n    }\r\n\r\n    function setAdminFee(uint256 newAdminFee) external onlyOwner() {\r\n      adminFee = newAdminFee;\r\n      emit AdminFeeChanged(newAdminFee);\r\n    }\r\n\r\n    function refund(uint256 amount) external refundAllowed() {\r\n      uint256 donorBalance = donations[msg.sender];\r\n      uint256 totalAmount = safeAdd(amount, adminFee);\r\n      require (totalAmount <= donorBalance, \"refund amount + adminFee amount exceeds donor balance!\");\r\n\r\n      donations[msg.sender] = safeSub(donorBalance, totalAmount); // deduct amount + adminFee\r\n      emit Refunded(msg.sender, amount, ++refundCount); // show refund of amount\r\n      msg.sender.transfer(amount);\r\n    }\r\n\r\n    // fallback function to receive Ether\r\n    fallback() external payable {\r\n      update();\r\n    }\r\n\r\n    receive() external payable {\r\n      update();\r\n    }\r\n\r\n    function safeAdd(uint a, uint b) pure internal returns (uint) {\r\n      uint256 c = a + b;\r\n      require(c >= a, \"a > c in safeAdd\");\r\n      return c;\r\n    }\r\n\r\n    function safeSub(uint a, uint b) pure internal returns (uint) {\r\n      require(b <= a, \"b > a in safeSub!\");\r\n      return a - b;\r\n    }\r\n\r\n}\r\n",
  "sourcePath": "C:/Users/chewy/OneDrive/Documents/Blockchain/Assignment/Blue-Cross-Donations/contracts/Donation.sol",
  "compiler": {
    "name": "solc",
    "version": "0.7.5+commit.eb77ed08.Emscripten.clang"
  },
  "schemaVersion": "3.3.3",
  "updatedAt": "2021-02-01T14:31:18.556Z",
  "networkType": "ethereum",
  "devdoc": {
    "kind": "dev",
    "methods": {},
    "version": 1
  },
  "userdoc": {
    "kind": "user",
    "methods": {},
    "version": 1
  }
}