{
  "contractName": "Donation",
  "abi": [
    {
      "inputs": [],
      "stateMutability": "nonpayable",
      "type": "constructor"
    },
    {
      "anonymous": false,
      "inputs": [
        {
          "indexed": true,
          "internalType": "address",
          "name": "sender",
          "type": "address"
        },
        {
          "indexed": false,
          "internalType": "uint256",
          "name": "amount",
          "type": "uint256"
        },
        {
          "indexed": false,
          "internalType": "uint256",
          "name": "count",
          "type": "uint256"
        }
      ],
      "name": "Received",
      "type": "event"
    },
    {
      "anonymous": false,
      "inputs": [
        {
          "indexed": true,
          "internalType": "address",
          "name": "receiver",
          "type": "address"
        },
        {
          "indexed": false,
          "internalType": "uint256",
          "name": "amount",
          "type": "uint256"
        }
      ],
      "name": "Withdrawn",
      "type": "event"
    },
    {
      "stateMutability": "payable",
      "type": "fallback",
      "payable": true
    },
    {
      "inputs": [],
      "name": "donationCount",
      "outputs": [
        {
          "internalType": "uint256",
          "name": "",
          "type": "uint256"
        }
      ],
      "stateMutability": "view",
      "type": "function",
      "constant": true
    },
    {
      "inputs": [],
      "name": "owner",
      "outputs": [
        {
          "internalType": "address",
          "name": "",
          "type": "address"
        }
      ],
      "stateMutability": "view",
      "type": "function",
      "constant": true
    },
    {
      "stateMutability": "payable",
      "type": "receive",
      "payable": true
    },
    {
      "inputs": [],
      "name": "donateETH",
      "outputs": [],
      "stateMutability": "payable",
      "type": "function",
      "payable": true
    },
    {
      "inputs": [],
      "name": "getBalance",
      "outputs": [
        {
          "internalType": "uint256",
          "name": "result",
          "type": "uint256"
        }
      ],
      "stateMutability": "view",
      "type": "function",
      "constant": true
    },
    {
      "inputs": [],
      "name": "emptyBalance",
      "outputs": [],
      "stateMutability": "nonpayable",
      "type": "function"
    }
  ],
  "bytecode": "0x608060405234801561001057600080fd5b50336000806101000a81548173ffffffffffffffffffffffffffffffffffffffff021916908373ffffffffffffffffffffffffffffffffffffffff16021790555061035b806100606000396000f3fe60806040526004361061004e5760003560e01c806312065fe0146100675780632abfab4d146100925780635a4ff679146100bd5780638b4c40b0146100d45780638da5cb5b146100de5761005d565b3661005d5761005b61011f565b005b61006561011f565b005b34801561007357600080fd5b5061007c61018b565b6040518082815260200191505060405180910390f35b34801561009e57600080fd5b506100a7610193565b6040518082815260200191505060405180910390f35b3480156100c957600080fd5b506100d2610199565b005b6100dc6102f7565b005b3480156100ea57600080fd5b506100f3610301565b604051808273ffffffffffffffffffffffffffffffffffffffff16815260200191505060405180910390f35b6001600081548092919060010191905055503373ffffffffffffffffffffffffffffffffffffffff167f74cf3d18d0ddca79038197ad0dd2c7fa5005ef61a5d1ed190e8a8a437e2fcf1034600154604051808381526020018281526020019250505060405180910390a2565b600047905090565b60015481565b60008054906101000a900473ffffffffffffffffffffffffffffffffffffffff1673ffffffffffffffffffffffffffffffffffffffff163373ffffffffffffffffffffffffffffffffffffffff161461025a576040517f08c379a00000000000000000000000000000000000000000000000000000000081526004018080602001828103825260208152602001807f63616c6c6572206973206e6f74206f776e6572206f6620636f6e74726163742181525060200191505060405180910390fd5b60004790503373ffffffffffffffffffffffffffffffffffffffff166108fc829081150290604051600060405180830381858888f193505050501580156102a5573d6000803e3d6000fd5b503373ffffffffffffffffffffffffffffffffffffffff167f7084f5476618d8e60b11ef0d7d3f06914655adb8793e28ff7f018d4c76d505d5826040518082815260200191505060405180910390a250565b6102ff61011f565b565b60008054906101000a900473ffffffffffffffffffffffffffffffffffffffff168156fea26469706673582212202379160bc26ac36033aea54ebec1a4917ef6238c94187e4bea67217ff3ada8fb64736f6c63430007050033",
  "immutableReferences": {},
  "source": "// SPDX-License-Identifier: UNLICENSED\r\n// author: chuacw, 24 Jan - 26 Jan 2021, Singapore, Singapore\r\n\r\npragma solidity ^0.7.4;\r\n\r\ncontract Donation {\r\n\r\n    address public owner;\r\n    uint256 public donationCount;\r\n\r\n    // Declare events\r\n    event Received(address indexed sender, uint256 amount, uint256 count);\r\n    event Withdrawn(address indexed receiver, uint256 amount);\r\n\r\n    constructor() {\r\n        owner = msg.sender;\r\n    }\r\n\r\n    modifier onlyOwner() {\r\n        require (msg.sender == owner, \"caller is not owner of contract!\");\r\n        _;\r\n    }\r\n\r\n    function update() internal {\r\n      donationCount++;\r\n      emit Received(msg.sender, msg.value, donationCount);      \r\n    }\r\n\r\n    function donateETH() public payable {\r\n      update();\r\n    }\r\n\r\n    // fallback function to receive Ether\r\n    fallback() external payable {\r\n      update();\r\n    }\r\n\r\n    receive() external payable {\r\n      update();\r\n    }\r\n\r\n    function getBalance() external view returns (uint256 result) {\r\n      result = address(this).balance;\r\n    }\r\n\r\n    function emptyBalance() public onlyOwner() {\r\n      uint256 value = address(this).balance;\r\n      msg.sender.transfer(value);\r\n      emit Withdrawn(msg.sender, value);\r\n    } \r\n\r\n}\r\n",
  "sourcePath": "C:/Users/chewy/OneDrive/Documents/Blockchain/Assignment/Blue-Cross-Donations/contracts/Donation.sol",
  "compiler": {
    "name": "solc",
    "version": "0.7.5+commit.eb77ed08.Emscripten.clang"
  },
  "schemaVersion": "3.3.3",
  "updatedAt": "2021-01-27T07:33:03.219Z",
  "networkType": "ethereum",
  "devdoc": {
    "kind": "dev",
    "methods": {},
    "version": 1
  },
  "userdoc": {
    "kind": "user",
    "methods": {},
    "version": 1
  }
}